{
  "_format": "hh-sol-artifact-1",
  "contractName": "Cert",
  "sourceName": "contracts/Cert.sol",
  "abi": [
    {
      "inputs": [],
      "stateMutability": "nonpayable",
      "type": "constructor"
    },
    {
      "anonymous": false,
      "inputs": [
        {
          "indexed": true,
          "internalType": "string",
          "name": "course",
          "type": "string"
        },
        {
          "indexed": true,
          "internalType": "uint256",
          "name": "id",
          "type": "uint256"
        },
        {
          "indexed": false,
          "internalType": "string",
          "name": "grade",
          "type": "string"
        }
      ],
      "name": "Issued",
      "type": "event"
    },
    {
      "inputs": [
        {
          "internalType": "uint256",
          "name": "",
          "type": "uint256"
        }
      ],
      "name": "Certificates",
      "outputs": [
        {
          "internalType": "string",
          "name": "name",
          "type": "string"
        },
        {
          "internalType": "string",
          "name": "course",
          "type": "string"
        },
        {
          "internalType": "string",
          "name": "grade",
          "type": "string"
        },
        {
          "internalType": "string",
          "name": "date",
          "type": "string"
        }
      ],
      "stateMutability": "view",
      "type": "function"
    },
    {
      "inputs": [
        {
          "internalType": "uint256",
          "name": "_id",
          "type": "uint256"
        },
        {
          "internalType": "string",
          "name": "name",
          "type": "string"
        },
        {
          "internalType": "string",
          "name": "course",
          "type": "string"
        },
        {
          "internalType": "string",
          "name": "grade",
          "type": "string"
        },
        {
          "internalType": "string",
          "name": "date",
          "type": "string"
        }
      ],
      "name": "issue",
      "outputs": [],
      "stateMutability": "nonpayable",
      "type": "function"
    }
  ],
  "bytecode": "0x6080604052348015600f57600080fd5b50336000806101000a81548173ffffffffffffffffffffffffffffffffffffffff021916908373ffffffffffffffffffffffffffffffffffffffff160217905550610bc98061005f6000396000f3fe608060405234801561001057600080fd5b50600436106100365760003560e01c80639622c8361461003b578063d1e7be261461006e575b600080fd5b61005560048036038101906100509190610496565b61008a565b6040516100659493929190610553565b60405180910390f35b610088600480360381019061008391906106e9565b6102da565b005b60016020528060005260406000206000915090508060000180546100ad90610803565b80601f01602080910402602001604051908101604052809291908181526020018280546100d990610803565b80156101265780601f106100fb57610100808354040283529160200191610126565b820191906000526020600020905b81548152906001019060200180831161010957829003601f168201915b50505050509080600101805461013b90610803565b80601f016020809104026020016040519081016040528092919081815260200182805461016790610803565b80156101b45780601f10610189576101008083540402835291602001916101b4565b820191906000526020600020905b81548152906001019060200180831161019757829003601f168201915b5050505050908060020180546101c990610803565b80601f01602080910402602001604051908101604052809291908181526020018280546101f590610803565b80156102425780601f1061021757610100808354040283529160200191610242565b820191906000526020600020905b81548152906001019060200180831161022557829003601f168201915b50505050509080600301805461025790610803565b80601f016020809104026020016040519081016040528092919081815260200182805461028390610803565b80156102d05780601f106102a5576101008083540402835291602001916102d0565b820191906000526020600020905b8154815290600101906020018083116102b357829003601f168201915b5050505050905084565b60008054906101000a900473ffffffffffffffffffffffffffffffffffffffff1673ffffffffffffffffffffffffffffffffffffffff163373ffffffffffffffffffffffffffffffffffffffff1614610368576040517f08c379a000000000000000000000000000000000000000000000000000000000815260040161035f90610880565b60405180910390fd5b6040518060800160405280858152602001848152602001838152602001828152506001600087815260200190815260200160002060008201518160000190816103b19190610a4c565b5060208201518160010190816103c79190610a4c565b5060408201518160020190816103dd9190610a4c565b5060608201518160030190816103f39190610a4c565b5090505084836040516104069190610b5a565b60405180910390207fc7fc4858662996e8fe091a9941384ab745bfc51199d7c0a5e45a791ff945993c8460405161043d9190610b71565b60405180910390a35050505050565b6000604051905090565b600080fd5b600080fd5b6000819050919050565b61047381610460565b811461047e57600080fd5b50565b6000813590506104908161046a565b92915050565b6000602082840312156104ac576104ab610456565b5b60006104ba84828501610481565b91505092915050565b600081519050919050565b600082825260208201905092915050565b60005b838110156104fd5780820151818401526020810190506104e2565b60008484015250505050565b6000601f19601f8301169050919050565b6000610525826104c3565b61052f81856104ce565b935061053f8185602086016104df565b61054881610509565b840191505092915050565b6000608082019050818103600083015261056d818761051a565b90508181036020830152610581818661051a565b90508181036040830152610595818561051a565b905081810360608301526105a9818461051a565b905095945050505050565b600080fd5b600080fd5b7f4e487b7100000000000000000000000000000000000000000000000000000000600052604160045260246000fd5b6105f682610509565b810181811067ffffffffffffffff82111715610615576106146105be565b5b80604052505050565b600061062861044c565b905061063482826105ed565b919050565b600067ffffffffffffffff821115610654576106536105be565b5b61065d82610509565b9050602081019050919050565b82818337600083830152505050565b600061068c61068784610639565b61061e565b9050828152602081018484840111156106a8576106a76105b9565b5b6106b384828561066a565b509392505050565b600082601f8301126106d0576106cf6105b4565b5b81356106e0848260208601610679565b91505092915050565b600080600080600060a0868803121561070557610704610456565b5b600061071388828901610481565b955050602086013567ffffffffffffffff8111156107345761073361045b565b5b610740888289016106bb565b945050604086013567ffffffffffffffff8111156107615761076061045b565b5b61076d888289016106bb565b935050606086013567ffffffffffffffff81111561078e5761078d61045b565b5b61079a888289016106bb565b925050608086013567ffffffffffffffff8111156107bb576107ba61045b565b5b6107c7888289016106bb565b9150509295509295909350565b7f4e487b7100000000000000000000000000000000000000000000000000000000600052602260045260246000fd5b6000600282049050600182168061081b57607f821691505b60208210810361082e5761082d6107d4565b5b50919050565b7f556e617574686f72697a65642041636365737300000000000000000000000000600082015250565b600061086a6013836104ce565b915061087582610834565b602082019050919050565b600060208201905081810360008301526108998161085d565b9050919050565b60008190508160005260206000209050919050565b60006020601f8301049050919050565b600082821b905092915050565b6000600883026109027fffffffffffffffffffffffffffffffffffffffffffffffffffffffffffffffff826108c5565b61090c86836108c5565b95508019841693508086168417925050509392505050565b6000819050919050565b600061094961094461093f84610460565b610924565b610460565b9050919050565b6000819050919050565b6109638361092e565b61097761096f82610950565b8484546108d2565b825550505050565b600090565b61098c61097f565b61099781848461095a565b505050565b5b818110156109bb576109b0600082610984565b60018101905061099d565b5050565b601f821115610a00576109d1816108a0565b6109da846108b5565b810160208510156109e9578190505b6109fd6109f5856108b5565b83018261099c565b50505b505050565b600082821c905092915050565b6000610a2360001984600802610a05565b1980831691505092915050565b6000610a3c8383610a12565b9150826002028217905092915050565b610a55826104c3565b67ffffffffffffffff811115610a6e57610a6d6105be565b5b610a788254610803565b610a838282856109bf565b600060209050601f831160018114610ab65760008415610aa4578287015190505b610aae8582610a30565b865550610b16565b601f198416610ac4866108a0565b60005b82811015610aec57848901518255600182019150602085019450602081019050610ac7565b86831015610b095784890151610b05601f891682610a12565b8355505b6001600288020188555050505b505050505050565b600081905092915050565b6000610b34826104c3565b610b3e8185610b1e565b9350610b4e8185602086016104df565b80840191505092915050565b6000610b668284610b29565b915081905092915050565b60006020820190508181036000830152610b8b818461051a565b90509291505056fea26469706673582212209b0daecb5e8758fcbf93495e465d50af319c0d2ae514ad21438e737d7d2b0def64736f6c634300081c0033",
  "linkReferences": {},
  "deployedLinkReferences": {}
}